{
  "_format": "hh-sol-artifact-1",
  "contractName": "LocalTrustNFT",
  "sourceName": "contracts/LocalTrustNFT.sol",
  "abi": [
    {
      "anonymous": false,
      "inputs": [
        {
          "indexed": true,
          "internalType": "uint256",
          "name": "tokenId",
          "type": "uint256"
        },
        {
          "indexed": false,
          "internalType": "uint256",
          "name": "price",
          "type": "uint256"
        }
      ],
      "name": "NFTListed",
      "type": "event"
    },
    {
      "anonymous": false,
      "inputs": [
        {
          "indexed": true,
          "internalType": "uint256",
          "name": "tokenId",
          "type": "uint256"
        },
        {
          "indexed": false,
          "internalType": "address",
          "name": "creator",
          "type": "address"
        },
        {
          "indexed": false,
          "internalType": "uint256",
          "name": "price",
          "type": "uint256"
        },
        {
          "indexed": false,
          "internalType": "string",
          "name": "tokenURI",
          "type": "string"
        }
      ],
      "name": "NFTMinted",
      "type": "event"
    },
    {
      "anonymous": false,
      "inputs": [
        {
          "indexed": true,
          "internalType": "uint256",
          "name": "tokenId",
          "type": "uint256"
        },
        {
          "indexed": false,
          "internalType": "address",
          "name": "buyer",
          "type": "address"
        },
        {
          "indexed": false,
          "internalType": "uint256",
          "name": "price",
          "type": "uint256"
        }
      ],
      "name": "NFTSold",
      "type": "event"
    },
    {
      "inputs": [
        {
          "internalType": "uint256",
          "name": "tokenId",
          "type": "uint256"
        }
      ],
      "name": "buyNFT",
      "outputs": [],
      "stateMutability": "payable",
      "type": "function"
    },
    {
      "inputs": [],
      "name": "getMyNFTs",
      "outputs": [
        {
          "internalType": "uint256[]",
          "name": "",
          "type": "uint256[]"
        }
      ],
      "stateMutability": "view",
      "type": "function"
    },
    {
      "inputs": [
        {
          "internalType": "uint256",
          "name": "tokenId",
          "type": "uint256"
        }
      ],
      "name": "getTokenURI",
      "outputs": [
        {
          "internalType": "string",
          "name": "",
          "type": "string"
        }
      ],
      "stateMutability": "view",
      "type": "function"
    },
    {
      "inputs": [
        {
          "internalType": "uint256",
          "name": "tokenId",
          "type": "uint256"
        },
        {
          "internalType": "uint256",
          "name": "price",
          "type": "uint256"
        }
      ],
      "name": "listNFT",
      "outputs": [],
      "stateMutability": "nonpayable",
      "type": "function"
    },
    {
      "inputs": [
        {
          "internalType": "string",
          "name": "tokenURI",
          "type": "string"
        },
        {
          "internalType": "uint256",
          "name": "price",
          "type": "uint256"
        }
      ],
      "name": "mintNFT",
      "outputs": [
        {
          "internalType": "uint256",
          "name": "",
          "type": "uint256"
        }
      ],
      "stateMutability": "nonpayable",
      "type": "function"
    },
    {
      "inputs": [
        {
          "internalType": "uint256",
          "name": "",
          "type": "uint256"
        }
      ],
      "name": "nfts",
      "outputs": [
        {
          "internalType": "uint256",
          "name": "id",
          "type": "uint256"
        },
        {
          "internalType": "address",
          "name": "creator",
          "type": "address"
        },
        {
          "internalType": "address",
          "name": "owner",
          "type": "address"
        },
        {
          "internalType": "uint256",
          "name": "price",
          "type": "uint256"
        },
        {
          "internalType": "bool",
          "name": "forSale",
          "type": "bool"
        },
        {
          "internalType": "string",
          "name": "tokenURI",
          "type": "string"
        }
      ],
      "stateMutability": "view",
      "type": "function"
    },
    {
      "inputs": [
        {
          "internalType": "address",
          "name": "",
          "type": "address"
        },
        {
          "internalType": "uint256",
          "name": "",
          "type": "uint256"
        }
      ],
      "name": "ownerNFTs",
      "outputs": [
        {
          "internalType": "uint256",
          "name": "",
          "type": "uint256"
        }
      ],
      "stateMutability": "view",
      "type": "function"
    }
  ],
  "bytecode": "0x6080604052348015600f57600080fd5b506114f68061001f6000396000f3fe6080604052600436106100705760003560e01c80635afa3a721161004e5780635afa3a7214610110578063629cb2e41461014d5780636be9479b1461017857806394383f14146101b557610070565b8063265aa621146100755780633bb3a24d146100b757806351ed8288146100f4575b600080fd5b34801561008157600080fd5b5061009c60048036038101906100979190610a6a565b6101de565b6040516100ae96959493929190610b92565b60405180910390f35b3480156100c357600080fd5b506100de60048036038101906100d99190610a6a565b6102ef565b6040516100eb9190610bfa565b60405180910390f35b61010e60048036038101906101099190610a6a565b610397565b005b34801561011c57600080fd5b5061013760048036038101906101329190610d51565b610597565b6040516101449190610dad565b60405180910390f35b34801561015957600080fd5b506101626107ee565b60405161016f9190610e86565b60405180910390f35b34801561018457600080fd5b5061019f600480360381019061019a9190610ed4565b610883565b6040516101ac9190610dad565b60405180910390f35b3480156101c157600080fd5b506101dc60048036038101906101d79190610f14565b6108b4565b005b60016020528060005260406000206000915090508060000154908060010160009054906101000a900473ffffffffffffffffffffffffffffffffffffffff16908060020160009054906101000a900473ffffffffffffffffffffffffffffffffffffffff16908060030154908060040160009054906101000a900460ff169080600501805461026c90610f83565b80601f016020809104026020016040519081016040528092919081815260200182805461029890610f83565b80156102e55780601f106102ba576101008083540402835291602001916102e5565b820191906000526020600020905b8154815290600101906020018083116102c857829003601f168201915b5050505050905086565b606060016000838152602001908152602001600020600501805461031290610f83565b80601f016020809104026020016040519081016040528092919081815260200182805461033e90610f83565b801561038b5780601f106103605761010080835404028352916020019161038b565b820191906000526020600020905b81548152906001019060200180831161036e57829003601f168201915b50505050509050919050565b6001600082815260200190815260200160002060040160009054906101000a900460ff166103fa576040517f08c379a00000000000000000000000000000000000000000000000000000000081526004016103f190611000565b60405180910390fd5b6001600082815260200190815260200160002060030154341015610453576040517f08c379a000000000000000000000000000000000000000000000000000000000815260040161044a9061106c565b60405180910390fd5b60006001600083815260200190815260200160002060020160009054906101000a900473ffffffffffffffffffffffffffffffffffffffff169050336001600084815260200190815260200160002060020160006101000a81548173ffffffffffffffffffffffffffffffffffffffff021916908373ffffffffffffffffffffffffffffffffffffffff16021790555060006001600084815260200190815260200160002060040160006101000a81548160ff0219169083151502179055508073ffffffffffffffffffffffffffffffffffffffff166108fc349081150290604051600060405180830381858888f19350505050158015610558573d6000803e3d6000fd5b50817f6329e40c0365262ebbff5ca819385c2b9713dcaa050ed07866d72c441395699a333460405161058b92919061108c565b60405180910390a25050565b60008082116105db576040517f08c379a00000000000000000000000000000000000000000000000000000000081526004016105d290611101565b60405180910390fd5b6000808154809291906105ed90611150565b91905055506000805490506040518060c001604052808281526020013373ffffffffffffffffffffffffffffffffffffffff1681526020013373ffffffffffffffffffffffffffffffffffffffff16815260200184815260200160001515815260200185815250600160008381526020019081526020016000206000820151816000015560208201518160010160006101000a81548173ffffffffffffffffffffffffffffffffffffffff021916908373ffffffffffffffffffffffffffffffffffffffff16021790555060408201518160020160006101000a81548173ffffffffffffffffffffffffffffffffffffffff021916908373ffffffffffffffffffffffffffffffffffffffff1602179055506060820151816003015560808201518160040160006101000a81548160ff02191690831515021790555060a082015181600501908161073e9190611344565b50905050600260003373ffffffffffffffffffffffffffffffffffffffff1673ffffffffffffffffffffffffffffffffffffffff168152602001908152602001600020819080600181540180825580915050600190039060005260206000200160009091909190915055807f463d85ceb93cc4d7ddf6727f8a3206619e95f36edb2a7851afccd49445dc90273385876040516107dc93929190611416565b60405180910390a28091505092915050565b6060600260003373ffffffffffffffffffffffffffffffffffffffff1673ffffffffffffffffffffffffffffffffffffffff16815260200190815260200160002080548060200260200160405190810160405280929190818152602001828054801561087957602002820191906000526020600020905b815481526020019060010190808311610865575b5050505050905090565b6002602052816000526040600020818154811061089f57600080fd5b90600052602060002001600091509150505481565b3373ffffffffffffffffffffffffffffffffffffffff166001600084815260200190815260200160002060020160009054906101000a900473ffffffffffffffffffffffffffffffffffffffff1673ffffffffffffffffffffffffffffffffffffffff1614610958576040517f08c379a000000000000000000000000000000000000000000000000000000000815260040161094f906114a0565b60405180910390fd5b6000811161099b576040517f08c379a000000000000000000000000000000000000000000000000000000000815260040161099290611101565b60405180910390fd5b806001600084815260200190815260200160002060030181905550600180600084815260200190815260200160002060040160006101000a81548160ff021916908315150217905550817fa6cd73580a273eec6c1026108f6b63479fbaef5356dde4ff43e4b38dd187485f82604051610a149190610dad565b60405180910390a25050565b6000604051905090565b600080fd5b600080fd5b6000819050919050565b610a4781610a34565b8114610a5257600080fd5b50565b600081359050610a6481610a3e565b92915050565b600060208284031215610a8057610a7f610a2a565b5b6000610a8e84828501610a55565b91505092915050565b610aa081610a34565b82525050565b600073ffffffffffffffffffffffffffffffffffffffff82169050919050565b6000610ad182610aa6565b9050919050565b610ae181610ac6565b82525050565b60008115159050919050565b610afc81610ae7565b82525050565b600081519050919050565b600082825260208201905092915050565b60005b83811015610b3c578082015181840152602081019050610b21565b60008484015250505050565b6000601f19601f8301169050919050565b6000610b6482610b02565b610b6e8185610b0d565b9350610b7e818560208601610b1e565b610b8781610b48565b840191505092915050565b600060c082019050610ba76000830189610a97565b610bb46020830188610ad8565b610bc16040830187610ad8565b610bce6060830186610a97565b610bdb6080830185610af3565b81810360a0830152610bed8184610b59565b9050979650505050505050565b60006020820190508181036000830152610c148184610b59565b905092915050565b600080fd5b600080fd5b7f4e487b7100000000000000000000000000000000000000000000000000000000600052604160045260246000fd5b610c5e82610b48565b810181811067ffffffffffffffff82111715610c7d57610c7c610c26565b5b80604052505050565b6000610c90610a20565b9050610c9c8282610c55565b919050565b600067ffffffffffffffff821115610cbc57610cbb610c26565b5b610cc582610b48565b9050602081019050919050565b82818337600083830152505050565b6000610cf4610cef84610ca1565b610c86565b905082815260208101848484011115610d1057610d0f610c21565b5b610d1b848285610cd2565b509392505050565b600082601f830112610d3857610d37610c1c565b5b8135610d48848260208601610ce1565b91505092915050565b60008060408385031215610d6857610d67610a2a565b5b600083013567ffffffffffffffff811115610d8657610d85610a2f565b5b610d9285828601610d23565b9250506020610da385828601610a55565b9150509250929050565b6000602082019050610dc26000830184610a97565b92915050565b600081519050919050565b600082825260208201905092915050565b6000819050602082019050919050565b610dfd81610a34565b82525050565b6000610e0f8383610df4565b60208301905092915050565b6000602082019050919050565b6000610e3382610dc8565b610e3d8185610dd3565b9350610e4883610de4565b8060005b83811015610e79578151610e608882610e03565b9750610e6b83610e1b565b925050600181019050610e4c565b5085935050505092915050565b60006020820190508181036000830152610ea08184610e28565b905092915050565b610eb181610ac6565b8114610ebc57600080fd5b50565b600081359050610ece81610ea8565b92915050565b60008060408385031215610eeb57610eea610a2a565b5b6000610ef985828601610ebf565b9250506020610f0a85828601610a55565b9150509250929050565b60008060408385031215610f2b57610f2a610a2a565b5b6000610f3985828601610a55565b9250506020610f4a85828601610a55565b9150509250929050565b7f4e487b7100000000000000000000000000000000000000000000000000000000600052602260045260246000fd5b60006002820490506001821680610f9b57607f821691505b602082108103610fae57610fad610f54565b5b50919050565b7f4e4654206e6f7420666f722073616c6500000000000000000000000000000000600082015250565b6000610fea601083610b0d565b9150610ff582610fb4565b602082019050919050565b6000602082019050818103600083015261101981610fdd565b9050919050565b7f496e73756666696369656e742066756e64730000000000000000000000000000600082015250565b6000611056601283610b0d565b915061106182611020565b602082019050919050565b6000602082019050818103600083015261108581611049565b9050919050565b60006040820190506110a16000830185610ad8565b6110ae6020830184610a97565b9392505050565b7f5072696365206d7573742062652067726561746572207468616e203000000000600082015250565b60006110eb601c83610b0d565b91506110f6826110b5565b602082019050919050565b6000602082019050818103600083015261111a816110de565b9050919050565b7f4e487b7100000000000000000000000000000000000000000000000000000000600052601160045260246000fd5b600061115b82610a34565b91507fffffffffffffffffffffffffffffffffffffffffffffffffffffffffffffffff820361118d5761118c611121565b5b600182019050919050565b60008190508160005260206000209050919050565b60006020601f8301049050919050565b600082821b905092915050565b6000600883026111fa7fffffffffffffffffffffffffffffffffffffffffffffffffffffffffffffffff826111bd565b61120486836111bd565b95508019841693508086168417925050509392505050565b6000819050919050565b600061124161123c61123784610a34565b61121c565b610a34565b9050919050565b6000819050919050565b61125b83611226565b61126f61126782611248565b8484546111ca565b825550505050565b600090565b611284611277565b61128f818484611252565b505050565b5b818110156112b3576112a860008261127c565b600181019050611295565b5050565b601f8211156112f8576112c981611198565b6112d2846111ad565b810160208510156112e1578190505b6112f56112ed856111ad565b830182611294565b50505b505050565b600082821c905092915050565b600061131b600019846008026112fd565b1980831691505092915050565b6000611334838361130a565b9150826002028217905092915050565b61134d82610b02565b67ffffffffffffffff81111561136657611365610c26565b5b6113708254610f83565b61137b8282856112b7565b600060209050601f8311600181146113ae576000841561139c578287015190505b6113a68582611328565b86555061140e565b601f1984166113bc86611198565b60005b828110156113e4578489015182556001820191506020850194506020810190506113bf565b8683101561140157848901516113fd601f89168261130a565b8355505b6001600288020188555050505b505050505050565b600060608201905061142b6000830186610ad8565b6114386020830185610a97565b818103604083015261144a8184610b59565b9050949350505050565b7f4e6f7420746865206f776e657200000000000000000000000000000000000000600082015250565b600061148a600d83610b0d565b915061149582611454565b602082019050919050565b600060208201905081810360008301526114b98161147d565b905091905056fea2646970667358221220ac4bcfd3915e7dbf173b5a5502b6952529e0f09b2743fe29b3f4e0a97e612e0764736f6c634300081c0033",
  "linkReferences": {},
  "deployedLinkReferences": {}
}